S01E0000616C766F763030315F66696E616C5F70726F6A6563742E737265638E
S113000045C0000060C000005EC000005CC000008D
S11300105AC0000058C0000056C0000054C0000080
S113002052C0000050C000004EC000004CC0000090
S11300304AC000001DC4000046C0000044C00000C7
S113004042C0000040C000003EC000003CC00000B0
S11300503AC0000038C0000036C0000034C00000C0
S113006032C0000030C000002EC000002CC00000D0
S11300702AC0000028C0000026C0000024C00000E0
S113008022C0000020C000001EC0000011241FBEBA
S1130090CFEFD0E4DEBFCDBF11E0A0E0B1E0E0E8F7
S11300A0FCE000E00BBF02C007900D92AE35B10733
S11300B0D9F721E0AEE5B1E001C01D92A23AB20742
S11300C0E1F7CBD2DBC59CCF181619065CF0089576
S11300D0000021503109E1F74F5F5F4F8417950706
S11300E019F4089540E050E027E033E0F1CF5E9842
S11300F088B95F9A00005F9882E090E0E5CF0895A8
S113010081E0F5CF0895813118F48158F0CF089536
S11301108155EDCF089584E690E0D6DF88E3E7DFEC
S113012086E0E5DF8FE0E3DF81E0E1DF8AE090E075
S1130130CBCF08955E9A88B95F9A00005F9881E0FA
S113014090E0C2CF08951F93CF93DF93FB0190817A
S1130150992351F0EB0111E0180FD5DF8991EADF03
S1130160812F98819111F7CFDF91CF911F9108953D
S11301700F931F93CF93DF93FC018B0150E0EA01AF
S11301802197C60FD71F18824250510942F1219777
S11301909F01ADECBCEC33D59695879596958795E4
S11301A0969587959C01220F331F880F991F880FFE
S11301B0991F880F991F820F931F9F01281B390BCA
S11301C0C901805D88839F011AD5FC01F695E795E6
S11301D0F695E795F695E79541505109C2F6C801A1
S11301E0DF91CF911F910F910895EAE7F0E08081AC
S11301F0806E80830895AB01BC01141615061606A3
S1130200170664F480E090E0DC0100000196A11D73
S1130210B11D481759076A077B07B9F70895EF928C
S1130220FF920F931F93CF93DF930CE710E080E4CA
S1130230F80180836CE271E080E090E0DCDFC8E7E5
S1130240D0E0E880F98081E4F80180836CE271E019
S113025080E090E0D0DF88819981EBE6F1E0F182E3
S1130260E08293838283DF91CF911F910F91FF905E
S1130270EF90089581309105D1F01CF4892B41F061
S11302806EC08230910559F18330910511F167C038
S1130290109297018AE080939B0131E020E08091E5
S11302A05F01811101C030E0832F922F1AC0909119
S11302B0980180916F01981709F454C090919701A7
S11302C080919B019817A0F0981312C01092970187
S11302D017C020915F01222309F43EC046C081E08B
S11302E090E08130910521F08230910549F034C0CD
S11302F0809197018F5F8093970181E090E02CC0FB
S113030040919501509196019A01ADECBCEC77D4E3
S113031096958795969587959C01220F331F220FFA
S1130320331F820F931F4817590739F480919B019B
S1130330823018F0815080939B0180916F0182304C
S113034030F0815080936F0182E090E005C080E13D
S113035080936F0182E090E080939401089580E09F
S113036090E0FACF83E090E0F7CF80E090E0F4CF24
S113037081309105B9F08630910509F44FC0892B7D
S113038009F052C081E08093980180E180936F016D
S113039031E020E080915F01811101C030E0832FC2
S11303A0922F44C08091980190916F01891709F4AC
S11303B077C020916D0130916E012F3592E039079D
S11303C038F4813108F445C080518093980148C0C5
S11303D02239324030F08131E0F5805F809398011A
S11303E047C020916B0130916C012F3592E03907A1
S11303F040F4823070F1813161F181508093980131
S11304003FC02239324028F1803120F09FEE980F0E
S11304109F30F8F48F5F809398013AC080915F0118
S1130420882309F43DC044C081E090E08330910505
S1130430F9F03CF48130910561F08230910581F04E
S113044008958530910521F1DCF08630910591F510
S113045027C060E070E0CB0160D181E090E00895B6
S113046064EA70EF86E793E458D182E090E008955F
S113047064EA70ED84EA93E450D183E090E0089557
S11304806BE774ED82E993E448D184E090E0089549
S113049060E070E08CE593E440D185E090E008955D
S11304A060E070E088EC92E438D186E090E0089552
S11304B080E090E0089524DE64E071E081E043DEB2
S11304C065E171E081E13FCE08951ADE69E371E0F0
S11304D080E239DE8091980116DE8EE32BCE0895FA
S11304E0CF93DF9300D000D000D0CDB7DEB708DEC5
S11304F066E271E081E027DE63E371E081E123DEFF
S113050046E0BE016F5F7F4F809195019091960107
S11305102FDEBC0188E117DE26960FB6F894DEBF05
S11305200FBECDBFDF91CF91089581309105A1F029
S113053082309105C1F0892BD9F410929601109262
S11305409501B9DF31E020E080915F01811101C0A4
S113055030E0832F922F0EC09091980180916F010B
S113056098130FC027C080915F01882319F126C01A
S113057080E090E08130910521F082309105D1F046
S11305801FC08091950190919601019690939601D8
S11305908093950144DE99DF80916F01B4DD8EE094
S11305A0C9DD80916F018E5EAEDD8EE0C3DD81E03A
S11305B090E006C095DF82E090E002C080E090E029
S11305C0809399010895EF92FF920F931F93CF9315
S11305D0DF9380915E01882319F08BE391E01ED3B1
S11305E081E080935E01C0E7D1E00F2EF4E9EF2EA5
S11305F0F1E0FF2EF02D8E014E815F8168857985B3
S11306008A819B81AC81BD81481759076A077B07A2
S113061058F0EA85FB8588819981099599838883B7
S11306201E821F8218861986F80186819781A0850B
S1130630B185C296A11DB11D86839783A087B1871A
S11306402C96CE15DF05B9F610925E01DF91CF919D
S11306501F910F91FF90EF90089511B88FEF82B919
S113066084B990E495B987B918B88AB91BB853DD31
S1130670BCDDBED010929A0110929901109294019F
S113068018B815B8E0E7F1E01182108282E390E037
S1130690A0E0B0E082839383A483B58386839783A9
S11306A0A087B18728EB31E033872287158614862B
S11306B086879787A08BB18B828B938BA48BB58B0A
S11306C02AE331E0378B268B118E108E828F938F25
S11306D0A48FB58F868F978FA0A3B1A385E992E0ED
S11306E093A382A362E370E080E090E0B0D08BD06B
S11306F080B1809580728093620180B18095807111
S11307008093610180B1809588708093600180B18D
S11307108095847080935F01EBCFCF92DF92EF924C
S1130720FF926B017C019B01AC01609163017091AC
S113073064018091650190916601E8D0882309F4F1
S113074052C020E030E0A901C701B601DFD0811119
S113075006C0E1E9F0E080818870808305C0E1E9AA
S1130760F0E080818360808328E539E344E75FE338
S1130770C701B601CBD088233CF48FEF9FEF909351
S113078099008093980023C020E034E244EF56E4BB
S1130790C701B601CDD118162CF41092990010920D
S11307A0980015C020E030E040E053E4C701B601F2
S11307B0C3D19B01AC0160E074E284EF9AE4AAD057
S11307C011D161507109709399006093980010924F
S11307D0950010929400C0926301D0926401E0925B
S11307E06501F0926601FF90EF90DF90CF9008953D
S11307F080E4809390008BE08093910060E070E04F
S1130800CB018BCF08958BE0809381008DE790E03E
S1130810909389008093880082E080936F00109207
S11308208500109284008091000190910101A091B3
S11308300201B09103018093670190936801A09332
S11308406901B0936A018FB780688FBF0895609380
S1130850000170930101809302019093030160935E
S11308606701709368018093690190936A01089508
S11308701F920F920FB60F9211240BB60F922F9363
S11308803F934F935F936F937F938F939F93AF9314
S1130890BF93EF93FF938091670190916801A091BA
S11308A06901B0916A010197A109B10980936701B7
S11308B090936801A0936901B0936A01892B8A2BF4
S11308C08B2B89F480DE8091000190910101A0912D
S11308D00201B09103018093670190936801A09392
S11308E06901B0936A01FF91EF91BF91AF919F911C
S11308F08F917F916F915F914F913F912F910F90C5
S11309000BBE0F900FBE0F901F9018959CD008F44B
S113091081E008950CD0D2C0CAD040F0C1D030F0EC
S113092021F45F3F19F0B3C05111FCC0B6C0D7D059
S113093098F39923C9F35523B1F3951B550BBB27A2
S1130940AA2762177307840738F09F5F5F4F220F4F
S1130950331F441FAA1FA9F333D00E2E3AF0E0E848
S113096030D091505040E695001CCAF729D0FE2F94
S113097027D0660F771F881FBB1F26173707480726
S1130980AB07B0E809F0BB0B802DBF01FF279358DC
S11309905F4F2AF09E3F510568F079C0C3C05F3FA6
S11309A0ECF3983EDCF3869577956795B795F795C4
S11309B09F5FC9F7880F911D9695879597F90895BC
S11309C0E1E0660F771F881FBB1F62177307840758
S11309D0BA0720F0621B730B840BBA0BEE1F88F767
S11309E0E095089504D06894B1119CC008957FD017
S11309F088F09F5790F0B92F9927B751A0F0D1F004
S1130A00660F771F881F991F1AF0BA95C9F712C08D
S1130A10B13081F086D0B1E0089583C0672F782F7C
S1130A208827B85F39F0B93FCCF3869577956795F9
S1130A30B395D9F73EF490958095709561957F4F65
S1130A408F4F9F4F0895990F0008550FAA0BE0E8A8
S1130A50FEEF16161706E807F907C0F0121613067C
S1130A60E407F50798F0621B730B840B950B39F4BC
S1130A700A2661F0232B242B252B21F408950A2622
S1130A8009F4A140A6958FEF811D811D089597F962
S1130A909F6780E870E060E008959FEF80EC089520
S1130AA000240A9416161706180609060895002449
S1130AB00A9412161306140605060895092E0394C3
S1130AC0000C11F4882352F0BB0F40F4BF2B11F437
S1130AD060FF04C06F5F7F4F8F4F9F4F089557FD96
S1130AE09058440F551F59F05F3F71F04795880F98
S1130AF097FB991F61F09F3F79F08795089512162F
S1130B0013061406551FF2CF4695F1DF08C01616DA
S1130B1017061806991FF1CF86957105610508948B
S1130B200895E894BB2766277727CB0197F90895A2
S1130B308ADF08F48FEF08950BD0C0CFB1DF28F01F
S1130B40B6DF18F0952309F0A2CFA7CF1124EACF7E
S1130B50C6DFA0F3959FD1F3950F50E0551F629F18
S1130B60F001729FBB27F00DB11D639FAA27F00D02
S1130B70B11DAA1F649F6627B00DA11D661F829F29
S1130B802227B00DA11D621F739FB00DA11D621F0E
S1130B90839FA00D611D221F749F3327A00D611D2B
S1130BA0231F849F600D211D822F762F6A2F11240D
S1130BB09F5750408AF0E1F088234AF0EE0FFF1F60
S1130BC0BB1F661F771F881F91505040A9F79E3F97
S1130BD0510570F05CCFA6CF5F3FECF3983EDCF399
S1130BE0869577956795B795F795E7959F5FC1F7D4
S1130BF0FE2B880F911D9695879597F90895A29FCE
S1130C00B001B39FC001A39F700D811D1124911DDC
S1130C10B29F700D811D1124911D08950F931F9390
S1130C20CF93DF93E0919E01F0919F01238121FFF7
S1130C301BC08C01D0E0C0E0F80181918F0160916C
S1130C409E0170919F01DB011896ED91FC9119971B
S1130C50882331F00995892B79F3DFEFCFEFECCFBF
S1130C608AE00995892B19F08FEF9FEF02C08D2F31
S1130C709C2FDF91CF911F910F910895F894FFCF8E
S1130C80010000003D3D3D3D3D3D204C4344203DA1
S1130C903D3D3D3D003D3D3D3D3D2052414345529E
S1130CA0203D3D3D3D0047414D45204F5645522096
S1130CB03A280053434F52453A2000506572696FF9
S1130CC06420746F6F2073686F727420746F206374
S1110CD06F6D706C657465207461736B7300D6
S9030000FC
