:1000000045C0000060C000005EC000005CC0000091
:100010005AC0000058C0000056C0000054C0000084
:1000200052C0000050C000004EC000004CC0000094
:100030004AC0000044C2000046C0000044C00000A6
:1000400042C0000040C000003EC000003CC00000B4
:100050003AC0000038C0000036C0000034C00000C4
:1000600032C0000030C000002EC000002CC00000D4
:100070002AC0000028C0000026C0000024C00000E4
:1000800022C0000020C000001EC0000011241FBEBE
:10009000CFEFD0E4DEBFCDBF11E0A0E0B1E0ECEDEA
:1000A000F5E000E00BBF02C007900D92AE32B10741
:1000B000D9F721E0AEE2B1E001C01D92A935B20747
:1000C000E1F78AD189C29CCF181619065CF0089511
:1000D000000021503109E1F74F5F5F4F841795070A
:1000E00019F4089540E050E027E033E0F1CF5E9846
:1000F00088B95F9A00005F9882E090E0E5CF0895AC
:1001000081E0F5CF0895813118F48158F0CF08953A
:100110008155EDCF089584E690E0D6DF88E3E7DFF0
:1001200086E0E5DF8FE0E3DF81E0E1DF8AE090E079
:10013000CBCF08955E9A88B95F9A00005F9881E0FE
:1001400090E0C2CF08950F931F93CF93DF93182FA2
:10015000EB01D6DF8881882351F001E0010F812F68
:10016000D2DF8991E7DF102F88818111F6CFDF91EF
:10017000CF911F910F9108951F93CF93DF93FB01B0
:100180009081992351F0EB0111E0180FBCDF8991A8
:10019000D1DF812F98819111F7CFDF91CF911F91FE
:1001A00008950F931F93CF93DF93FC018B0150E0D1
:1001B000EA012197C60FD71F18824250510942F118
:1001C00021979F01ADECBCECC8D19695879596958B
:1001D0008795969587959C01220F331F880F991F4D
:1001E000880F991F880F991F820F931F9F01281B4B
:1001F000390BC901805D88839F01AFD1FC01F69561
:10020000E795F695E795F695E79541505109C2F6C1
:10021000C801DF91CF911F910F910895EAE7F0E0B7
:100220008081806E80830895AB01BC011416150691
:100230001606170664F480E090E0DC0100000196E9
:10024000A11DB11D481759076A077B07B9F7089523
:100250000F931F93CF93DF93CDB7DEB7C456D10969
:100260000FB6F894DEBF0FBECDBF64E071E081E051
:100270006ADF03E311E045E0BE016F5F7F4FF801E5
:10028000808191818EDFBC0183E076DF67E071E0E1
:1002900081E172DF45E0BE016F5F7F4FF80182812F
:1002A00093817FDFBC0183E167DFCC59DF4F0FB65D
:1002B000F894DEBF0FBECDBFDF91CF911F910F919C
:1002C0000895EF92FF920F931F93CF93DF930CE764
:1002D00010E080E4F80180836CE271E080E090E05F
:1002E000A3DFC8E7D0E0E880F98081E4F8018083EB
:1002F0006CE271E080E090E097DF88819981E3E330
:10030000F1E0F182E08293838283DF91CF911F91AC
:100310000F91FF90EF9008959C01909152019150A0
:10032000953010F021E030E0C9010895029728F4DB
:10033000C8DF8EDF81E090E002C080E090E0809333
:1003400051010895EF92FF920F931F93CF93DF9384
:1003500080912E01882319F08AE091E00DD181E08F
:1003600080932E01C7E3D1E00F2EFFE4EF2EF1E0E2
:10037000FF2EF02D8E014E815F81688579858A81FF
:100380009B81AC81BD81481759076A077B0758F0EC
:10039000EA85FB85888199810995998388831E82E6
:1003A0001F8218861986F80186819781A085B185FC
:1003B000C296A11DB11D86839783A087B1872C9615
:1003C000CE15DF05B9F610922E01DF91CF911F9166
:1003D0000F91FF90EF90089511B88FEF82B984B913
:1003E00015B887B918B88AB91BB895DE17DF10920F
:1003F00052011092510118B815B8E7E3F1E01182EB
:10040000108282E390E0A0E0B0E082839383A48333
:10041000B58386839783A087B1878CE891E0938723
:1004200082871586148684E690E0A0E0B0E0868797
:100430009787A08BB18B828B938BA48BB58B86E92E
:1004400091E0978B868B62E370E080E090E026D0AD
:1004500001D0FFCF8BE0809381008DE790E09093F7
:1004600089008093880082E080936F00109285005D
:10047000109284008091000190910101A0910201ED
:10048000B091030180932F0190933001A09331012B
:10049000B09332018FB780688FBF089560930001D9
:1004A00070930101809302019093030160932F01E7
:1004B00070933001809331019093320108951F921F
:1004C0000F920FB60F9211240BB60F922F933F93FA
:1004D0004F935F936F937F938F939F93AF93BF934C
:1004E000EF93FF9380912F0190913001A091310102
:1004F000B09132010197A109B10980932F01909326
:100500003001A0933101B0933201892B8A2B8B2BC0
:1005100089F418DF8091000190910101A0910201FE
:10052000B091030180932F0190933001A09331018A
:10053000B0933201FF91EF91BF91AF919F918F9155
:100540007F916F915F914F913F912F910F900BBED3
:100550000F900FBE0F901F901895A29FB001B39FF0
:10056000C001A39F700D811D1124911DB29F700DBC
:10057000811D1124911D08950F931F93CF93DF9335
:10058000E0915501F0915601238121FF1BC08C01A0
:10059000D0E0C0E0F80181918F0160915501709128
:1005A0005601DB011896ED91FC911997882331F0E3
:1005B0000995892B79F3DFEFCFEFECCF8AE009952E
:1005C000892B19F08FEF9FEF02C08D2F9C2FDF91A9
:0C05D000CF911F910F910895F894FFCF78
:1005DC0001000000583A00593A00506572696F6486
:1005EC0020746F6F2073686F727420746F20636F48
:0E05FC006D706C65746520626F6F6273000035
:00000001FF
