:1000000045C0000060C000005EC000005CC0000091
:100010005AC0000058C0000056C0000054C0000084
:1000200052C0000050C000004EC000004CC0000094
:100030004AC0000020C2000046C0000044C00000CA
:1000400042C0000040C000003EC000003CC00000B4
:100050003AC0000038C0000036C0000034C00000C4
:1000600032C0000030C000002EC000002CC00000D4
:100070002AC0000028C0000026C0000024C00000E4
:1000800022C0000020C000001EC0000011241FBEBE
:10009000CFEFD0E4DEBFCDBF11E0A0E0B1E0E4E9F6
:1000A000F5E000E00BBF02C007900D92A832B10747
:1000B000D9F721E0A8E2B1E001C01D92AA3BB20746
:1000C000E1F76AD165C29CCF181619065CF0089555
:1000D000000021503109E1F74F5F5F4F841795070A
:1000E00019F4089540E050E027E033E0F1CF5E9846
:1000F00088B95F9A00005F9882E090E0E5CF0895AC
:1001000081E0F5CF0895813118F48158F0CF08953A
:100110008155EDCF089584E690E0D6DF88E3E7DFF0
:1001200086E0E5DF8FE0E3DF81E0E1DF8AE090E079
:10013000CBCF08955E9A88B95F9A00005F9881E0FE
:1001400090E0C2CF08950F931F93CF93DF93182FA2
:10015000EB01D6DF8881882351F001E0010F812F68
:10016000D2DF8991E7DF102F88818111F6CFDF91EF
:10017000CF911F910F9108950F931F93CF93DF930A
:10018000FC018B0150E0EA012197C60FD71F1882AE
:100190004250510942F121979F01ADECBCECB9D11D
:1001A0009695879596958795969587959C01220FAC
:1001B000331F880F991F880F991F880F991F820F6F
:1001C000931F9F01281B390BC901805D88839F0104
:1001D000A0D1FC01F695E795F695E795F695E7959C
:1001E00041505109C2F6C801DF91CF911F910F9183
:1001F0000895EAE7F0E08081806E808308959C0195
:100200001092AF019091B101923081F030F49923B6
:1002100051F0913009F45FC041C0943019F1A0F061
:10022000953071F13BC021E030E055C04091A9010B
:100230005091AA018091AD019091AE0148175907E4
:10024000D1F121E030E037C04091A9015091AA01DD
:100250008091AD019091AE014817590781F121E0DD
:1002600030E02DC04091A9015091AA018091B201C6
:100270009091B3014817590731F121E030E023C0D4
:100280004091A9015091AA018091B2019091B301CE
:1002900048175907E1F021E030E019C0933069F0C8
:1002A00018F4923031F015C0943059F0953069F05F
:1002B00010C021E030E015B80EC021E030E015B8E4
:1002C0000AC021E030E015B806C021E030E015B8E2
:1002D00002C021E030E0C9010895029770F48091D6
:1002E00078009091790044E06DE271E045DFBC0157
:1002F00081E029DF81E090E002C080E090E080931F
:10030000B0010895EF92FF920F931F93CF93DF9365
:1003100080912801882319F084E091E009D181E0DF
:1003200080932801C1E9D1E00F2EF9EAEF2EF1E028
:10033000FF2EF02D8E014E815F81688579858A813F
:100340009B81AC81BD81481759076A077B0758F02C
:10035000EA85FB85888199810995998388831E8226
:100360001F8218861986F80186819781A085B1853C
:10037000C296A11DB11D86839783A087B1872C9655
:10038000CE15DF05B9F610922801DF91CF911F91AC
:100390000F91FF90EF90089511B88FEF82B984B953
:1003A00015B887B918B88AB91BB8B5DE22DF109224
:1003B000B1011092B00118B815B8E1E9F1E011826D
:1003C000108282E390E0A0E0B0E082839383A48374
:1003D000B58386839783A087B1872FEF30E033877B
:1003E00022871586148686879787A08BB18B828B90
:1003F000938BA48BB58B8DE691E0978B868B62E314
:1004000070E080E090E026D001D0FFCF8BE08093B9
:1004100081008DE790E0909389008093880082E0CE
:1004200080936F00109285001092840080910001EB
:1004300090910101A0910201B091030180932901E3
:1004400090932A01A0932B01B0932C018FB7806861
:100450008FBF0895609300017093010180930201A2
:10046000909303016093290170932A0180932B01DB
:1004700090932C0108951F920F920FB60F921124A2
:100480000BB60F922F933F934F935F936F937F938E
:100490008F939F93AF93BF93EF93FF938091290125
:1004A00090912A01A0912B01B0912C010197A109F3
:1004B000B1098093290190932A01A0932B01B09355
:1004C0002C01892B8A2B8B2B89F41CDF8091000156
:1004D00090910101A0910201B09103018093290143
:1004E00090932A01A0932B01B0932C01FF91EF91DF
:1004F000BF91AF919F918F917F916F915F914F913C
:100500003F912F910F900BBE0F900FBE0F901F9039
:100510001895A29FB001B39FC001A39F700D811DCC
:100520001124911DB29F700D811D1124911D0895FC
:100530000F931F93CF93DF93E091B601F091B70132
:10054000238121FF1BC08C01D0E0C0E0F801819124
:100550008F016091B6017091B701DB011896ED91A2
:10056000FC911997882331F00995892B79F3DFEFF6
:10057000CFEFECCF8AE00995892B19F08FEF9FEF31
:1005800002C08D2F9C2FDF91CF911F910F91089565
:04059000F894FFCF0D
:1005940001000000506572696F6420746F6F2073EE
:1005A400686F727420746F20636F6D706C6574650E
:0805B40020626F6F627300000A
:00000001FF
