:100000004DC0000069C0000067C0000065C000006E
:1000100063C0000061C000005FC000005DC0000060
:100020005BC0000059C0000057C0000055C0000070
:1000300053C000000BC600004FC000004DC00000C0
:100040004BC0000049C0000047C0000045C0000090
:1000500043C0000041C000003FC000003DC00000A0
:100060003BC0000039C0000037C0000035C00000B0
:1000700033C0000031C000002FC000002DC00000C0
:100080002BC0000029C0000027C00000CD01DB010B
:10009000D401E301E901EF01F501FB0111241FBEC9
:1000A000CFEFD0E4DEBFCDBF11E0A0E0B1E0ECE7E0
:1000B000F1E100E00BBF02C007900D92A236B1073C
:1000C000D9F721E0A2E6B1E001C01D92AF3BB20733
:1000D000E1F799D40C94BC0893CF181619065CF07C
:1000E0000895000021503109E1F74F5F5F4F8417F9
:1000F000950719F4089540E050E027E033E0F1CF90
:100100005E9888B95F9A00005F9882E090E0E5CF42
:10011000089581E0F5CF0895813118F48158F0CF2A
:1001200008958155EDCF089584E690E0D6DF88E309
:10013000E7DF86E0E5DF8FE0E3DF81E0E1DF8AE013
:1001400090E0CBCF08955E9A88B95F9A00005F98DF
:1001500081E090E0C2CF08951F93CF93DF93FB011E
:100160009081992351F0EB0111E0180FD5DF8991AF
:10017000EADF812F98819111F7CFDF91CF911F9105
:1001800008950F931F93CF93DF93FC018B0150E0F1
:10019000EA012197C60FD71F18824250510942F138
:1001A00021979F01ADECBCEC35D796958795969538
:1001B0008795969587959C01220F331F880F991F6D
:1001C000880F991F880F991F820F931F9F01281B6B
:1001D000390BC901805D88839F011CD7FC01F6950E
:1001E000E795F695E795F695E79541505109C2F6E2
:1001F000C801DF91CF911F910F910895EAE7F0E0D8
:100200008081806E80830895AB01BC0114161506B1
:100210001606170664F480E090E0DC010000019609
:10022000A11DB11D481759076A077B07B9F7089543
:10023000EF92FF920F931F93CF93DF930CE710E0A1
:1002400080E4F80180836CE271E080E090E0DCDF24
:10025000C8E7D0E0E880F98081E4F80180836CE2AF
:1002600071E080E090E0D0DF88819981E2E7F1E001
:10027000F182E08293838283DF91CF911F910F916E
:10028000FF90EF900895CF93DF93EC0181309105BB
:1002900099F01CF4892B41F076C082309105B1F0C1
:1002A000079709F46AC06FC081E08093B80180911C
:1002B0006901811179C071C091E080E020916901EC
:1002C000211101C090E0C92FD82F5FC08091740127
:1002D000909175018F3522E0920750F48091B8011A
:1002E0008131B8F180518093B801C3E0D0E031C0D2
:1002F0008239924050F08091B801813150F5805F91
:100300008093B801C4E0D0E024C080917201909144
:1003100073018F3522E0920760F48091B80182303A
:10032000C0F08131B1F081508093B801C5E0D0E0D8
:1003300010C08239924068F08091B801803120F07D
:100340009FEE980F9F3028F48F5F8093B801C6E02E
:10035000D0E09091B80180917601891709F44BC0E3
:10036000E6E7F1E020E831E08281891709F443C033
:1003700032962E173F07C1F708C080916901882384
:1003800009F439C018C0C2E0D0E0C830D10508F087
:1003900039C0FE01EA5BFF4F34C660E070E0CB017C
:1003A000AAD3C0E0D0E02EC060E070E0CB01A3D3C0
:1003B000C2E0D0E027C060E070E088EC93E49BD31B
:1003C000C1E0D0E01FC064EA70EF86E793E493D306
:1003D00019C064EA70ED84EA93E48DD313C06BE72F
:1003E00074ED82E993E487D30DC060E070E08CE5A2
:1003F00093E481D307C060E070E088EC92E47BD3A3
:10040000C7E0D0E0CE01DF91CF9108958230910511
:10041000F1F034F4009761F08130910571F027C05C
:100420008330910509F463C084309105C9F01FC081
:100430002091690121115EC057C031E020E0809118
:100440006901811101C030E0832F922F10C02091EB
:10045000660121110FC02091620121110BC044C01F
:1004600080916901811149C087E090E03DC08330EF
:100470009105D1F58091B201811110C060E070E06A
:100480008AEF93E438D381E0809362018091B801D0
:100490008F5F8093B20183E090E026C0803151F0FD
:1004A000803241F090916201992321F08F5F809317
:1004B000B20126C01092B2011092620121C0808167
:1004C000891308C091819A3F21F41082452F952FFE
:1004D00001C0982F3296E217F30789F79093B20183
:1004E0004093620183E090E08093B901089582E037
:1004F00090E0FACF82E090E0F7CF81E090E0F4CF97
:100500009091B20140916201E6E7F1E022E831E02A
:1005100050E0D5CFFEDD69E071E081E01DDE6AE1EB
:1005200071E081E119CE0895F4DD6BE271E081E0C4
:1005300013DE6CE371E081E10FCE08950F931F93FA
:10054000CF93DF93E6DD60E671E080E205DE809127
:10055000B801E2DD8EE3F7DDC2EBD1E08881DCDDBE
:100560008981F1DDC6E7D1E002E811E08881D4DDC0
:100570008981E9DD2296C017D107C1F7DF91CF91BC
:100580001F910F910895CF93DF9300D000D000D03A
:10059000CDB7DEB7BEDD6DE471E081E0DDDD6AE59B
:1005A00071E081E1D9DD46E0BE016F5F7F4F809150
:1005B000BC019091BD01E5DDBC0188E1CDDD269651
:1005C0000FB6F894DEBF0FBECDBFDF91CF91089577
:1005D0008230910509F43FC02CF4009751F0019747
:1005E00019F155C083309105D9F1049709F44AC037
:1005F0004EC01092BD011092BC0180916901882308
:1006000041F0809165018F3008F053C01092650170
:1006100074C0809165018F3008F44BC08F3009F0B1
:1006200048C01092650157C080916901882341F04C
:10063000809165018F3008F04EC0109265015DC059
:10064000809165018F3008F446C08F3009F043C0B7
:10065000109265012EC02091690121116BC029C043
:100660003091B801E6E7F1E042E851E074E060E083
:100670002081231302C0872F962F32964E175F07D3
:10068000B9F707C080916901811152C04DC080E067
:1006900090E081309105F9F024F4009709F04AC008
:1006A00008C08330910549F18430910509F43CC0BC
:1006B00041C08091B5019091B60101969093B60129
:1006C0008093B501809165018F5F8093650122DF82
:1006D00080E090E02FC08091B5019091B601019625
:1006E0009093B6018093B501809165018F5F8093EF
:1006F00065011ADF81E090E01DC08091BC019091FE
:10070000BD0101969093BD018093BC018091B5011C
:100710009091B60101969093B6018093B50188DD62
:100720000DDF83E090E006C02EDF84E090E002C0A1
:1007300082E090E08093BA010895E6E7F1E080E07E
:100740002AEF9EE080FD02C0918301C021831082C8
:100750008F5F32968630B1F7E2EBF1E010828DE2E6
:1007600081830895AF92BF92CF92DF92EF92FF9272
:100770000F931F93CF93DF937C0182E0E816F1047F
:1007800071F13CF4E114F10479F0EA94EF28E9F016
:10079000BEC083E0E816F10409F44AC0A4E0EA16FA
:1007A000F10409F43FC0B3C01092B7018AE080930E
:1007B000BE0180916901882309F4D9C0BEDF809110
:1007C000B5019091B6017FD433C091E080E02091D3
:1007D0006901211101C090E0E92EF82EA9C0909185
:1007E000B7018091BE01981748F0981307C0109286
:1007F000B7010F2EF3E0EF2EF12CF02D9091B80100
:1008000080917601891709F485C0E6E7F1E020E8D8
:1008100031E08281891709F482C032962E173F0792
:10082000C1F786C080916901882309F4A0C07CC00B
:100830008091B7018F5F8093B7016894EE24E1F84F
:10084000F12C95C0911108C0808131EE380F323003
:1008500080F08051823078F0211110C0808121EF2A
:10086000280F233050F08052242F823038F0252F6B
:1008700005C0942F03C0942F01C0242F3296CE16AA
:10088000DF0601F7209364019093630106E711E00E
:100890000F2EF1E1AF2EF02D0F2EF1E2BF2EF02D35
:1008A00010C0F8018081811107C08091630181111E
:1008B00058C0B08201C0A0820E5F1F4FC016D10683
:1008C00019F0FED380FDEDCF109264011092630108
:1008D0006091040170E08091BC019091BD017DD3D5
:1008E000892B39F48091BE01823018F081508093B9
:1008F000BE0188819EEF980F903218F48150888352
:1009000001C018822296CC15DD0599F730C0E12C84
:10091000F12C2DC06894EE24E2F8F12C28C06894E4
:10092000EE24E2F8F12C23C0EE24E394F12C1FC056
:10093000B2E0EB16F10409F47BCF83E0E816F10492
:10094000B1F49091630120916401C6E7D1E00F2ECC
:10095000F2E8CF2EF1E0DF2EF02DFE0141E050E075
:1009600071CF80916401882309F4A5CFA5CFE092CF
:10097000B401C701DF91CF911F910F91FF90EF90CC
:10098000DF90CF90BF90AF900895EF92FF920F93BA
:100990001F93CF93DF93C2E8D1E00F2EF2EBEF2E3F
:1009A000F1E0FF2EF02D8E014E815F816885798503
:1009B0008A819B81AC81BD81481759076A077B07F3
:1009C00058F0EA85FB858881998109959983888308
:1009D0001E821F8218861986F80186819781A0855C
:1009E000B1854996A11DB11D86839783A087B187E4
:1009F0002C96CE15DF05B9F6DF91CF911F910F919F
:100A0000FF90EF90089511B88FEF82B984B990E408
:100A100095B987B918B88AB91BB886DBEFDBD6D091
:100A20001092B6011092B5011092BB011092BA015A
:100A30001092B4011092B90118B815B8E2E8F1E0CB
:100A40001182108282E390E0A0E0B0E08283938381
:100A5000A483B58386839783A087B18723E431E09D
:100A6000338722871586148686879787A08BB18B5C
:100A7000828B938BA48BB58B22EB33E0378B268B49
:100A8000118E108E49E150E060E070E0428F538F8C
:100A9000648F758F468F578F60A371A326E032E075
:100AA00033A322A315A214A286A397A3A0A7B1A73C
:100AB00082A793A7A4A7B5A788EE92E097A786A7D9
:100AC00069E170E080E090E0B0D08BD080B180959B
:100AD00080728093690180B18095807180936801F4
:100AE00080B1809588708093670180B18095847013
:100AF00080936601EBCFCF92DF92EF92FF926B0172
:100B00007C019B01AC0160916A0170916B01809145
:100B10006C0190916D01E8D0882309F452C020E067
:100B200030E0A901C701B601DFD0811106C0E1E9BB
:100B3000F0E080818870808305C0E1E9F0E0808189
:100B40008360808328E539E344E75FE3C701B601AA
:100B5000CBD088233CF48FEF9FEF90939900809344
:100B6000980023C020E034E244EF56E4C701B60108
:100B7000CDD118162CF4109299001092980015C03F
:100B800020E030E040E053E4C701B601C3D19B014F
:100B9000AC0160E074E284EF9AE4AAD011D1615014
:100BA00071097093990060939800109295001092CB
:100BB0009400C0926A01D0926B01E0926C01F092B5
:100BC0006D01FF90EF90DF90CF90089580E48093C7
:100BD00090008BE08093910060E070E0CB018BCFC0
:100BE00008958BE0809381008DE790E090938900D9
:100BF0008093880082E080936F00109285001092AD
:100C000084008091050190910601A0910701B091A7
:100C1000080180936E0190936F01A0937001B093CF
:100C200071018FB780688FBF08956093050170933D
:100C30000601809307019093080160936E01709301
:100C40006F01809370019093710108951F920F922C
:100C50000FB60F9211240BB60F922F933F934F9321
:100C60005F936F937F938F939F93AF93BF93EF9314
:100C7000FF9380916E0190916F01A0917001B091EE
:100C800071010197A109B10980936E0190936F01E1
:100C9000A0937001B0937101892B8A2B8B2B89F45F
:100CA00074DE8091050190910601A0910701B09139
:100CB000080180936E0190936F01A0937001B0932F
:100CC0007101FF91EF91BF91AF919F918F917F91B2
:100CD0006F915F914F913F912F910F900BBE0F90AD
:100CE0000FBE0F901F9018959CD008F481E00895D6
:100CF0000CD0D2C0CAD040F0C1D030F021F45F3F58
:100D000019F0B3C05111FCC0B6C0D7D098F39923E5
:100D1000C9F35523B1F3951B550BBB27AA276217BF
:100D20007307840738F09F5F5F4F220F331F441F04
:100D3000AA1FA9F333D00E2E3AF0E0E830D091503C
:100D40005040E695001CCAF729D0FE2F27D0660F29
:100D5000771F881FBB1F261737074807AB07B0E868
:100D600009F0BB0B802DBF01FF2793585F4F2AF07E
:100D70009E3F510568F079C0C3C05F3FECF3983ED9
:100D8000DCF3869577956795B795F7959F5FC9F7DB
:100D9000880F911D9695879597F90895E1E0660F64
:100DA000771F881FBB1F621773078407BA0720F0DD
:100DB000621B730B840BBA0BEE1F88F7E095089546
:100DC00004D06894B1119CC008957FD088F09F57DB
:100DD00090F0B92F9927B751A0F0D1F0660F771F87
:100DE000881F991F1AF0BA95C9F712C0B13081F067
:100DF00086D0B1E0089583C0672F782F8827B85F29
:100E000039F0B93FCCF3869577956795B395D9F7C7
:100E10003EF490958095709561957F4F8F4F9F4FD1
:100E20000895990F0008550FAA0BE0E8FEEF16167B
:100E30001706E807F907C0F012161306E407F507CE
:100E400098F0621B730B840B950B39F40A2661F042
:100E5000232B242B252B21F408950A2609F4A140E5
:100E6000A6958FEF811D811D089597F99F6780E8F2
:100E700070E060E008959FEF80EC089500240A94EC
:100E80001616170618060906089500240A94121665
:100E90001306140605060895092E0394000C11F498
:100EA000882352F0BB0F40F4BF2B11F460FF04C045
:100EB0006F5F7F4F8F4F9F4F089557FD9058440F9E
:100EC000551F59F05F3F71F04795880F97FB991FA9
:100ED00061F09F3F79F08795089512161306140666
:100EE000551FF2CF4695F1DF08C0161617061806F3
:100EF000991FF1CF86957105610508940895E894CE
:100F0000BB2766277727CB0197F908958ADF08F476
:100F10008FEF08950BD0C0CFB1DF28F0B6DF18F007
:100F2000952309F0A2CFA7CF1124EACFC6DFA0F303
:100F3000959FD1F3950F50E0551F629FF001729F6E
:100F4000BB27F00DB11D639FAA27F00DB11DAA1F8D
:100F5000649F6627B00DA11D661F829F2227B00DDA
:100F6000A11D621F739FB00DA11D621F839FA00D65
:100F7000611D221F749F3327A00D611D231F849FB5
:100F8000600D211D822F762F6A2F11249F5750400C
:100F90008AF0E1F088234AF0EE0FFF1FBB1F661FA7
:100FA000771F881F91505040A9F79E3F510570F060
:100FB0005CCFA6CF5F3FECF3983EDCF38695779548
:100FC0006795B795F795E7959F5FC1F7FE2B880F5B
:100FD000911D9695879597F90895AA1BBB1B51E122
:100FE00007C0AA1FBB1FA617B70710F0A61BB70B99
:100FF000881F991F5A95A9F780959095BC01CD013E
:101000000895EE0FFF1F0024001C0BBE0790F69101
:10101000E02D0994A29FB001B39FC001A39F700D62
:10102000811D1124911DB29F700D811D1124911DF0
:1010300008958F929F92AF92BF92CF92DF92EF92DC
:10104000FF92CF93DF93EC01688179818A819B8144
:10105000611571058105910521F464E279ED8BE557
:1010600097E02DE133EF41E050E038D049015A01DB
:101070009B01AC01A7EAB1E44DD06B017C01ACEE61
:10108000B4EFA501940152D0DC01CB018C0D9D1D64
:10109000AE1DBF1DB7FF03C00197A109B0488883EB
:1010A0009983AA83BB839F77DF91CF91FF90EF90C5
:1010B000DF90CF90BF90AF909F908F900895B9CF61
:1010C00080E091E0B6CFA0E0B0E080930001909383
:1010D0000101A0930201B09303010895052E97FB2F
:1010E00016F400940FD057FD05D024D007FC02D091
:1010F00046F408C050954095309521953F4F4F4F8D
:101100005F4F089590958095709561957F4F8F4FB3
:101110009F4F08957FDFA59F900DB49F900DA49FD2
:10112000800D911D11240895B7FFF4CFF3DF821BCA
:10113000930B0895A1E21A2EAA1BBB1BFD010DC043
:10114000AA1FBB1FEE1FFF1FA217B307E407F50777
:1011500020F0A21BB30BE40BF50B661F771F881F53
:10116000991F1A9469F760957095809590959B01E9
:0C117000AC01BD01CF010895F894FFCF41
:10117C000100000014010000003D3D3D3D3D3D20BF
:10118C004C4344203D3D3D3D3D003D3D3D3D3D20DE
:10119C005241434552203D3D3D3D005220666F7209
:1011AC00204F6E6520506C61796572005920666F16
:1011BC00722054776F20506C617965720047414DF5
:1011CC0045204F564552203A280053434F52453A3A
:0211DC002000F1
:00000001FF
