:1000000055C0000071C000006FC000006DC000004E
:100010006BC0000069C0000067C0000065C0000040
:1000200063C0000061C000005FC000005DC0000050
:100030005BC000000C943B0857C0000055C0000096
:1000400053C0000051C000004FC000004DC0000070
:100050004BC0000049C0000047C0000045C0000080
:1000600043C0000041C000003FC000003DC0000090
:100070003BC0000039C0000037C0000035C00000A0
:1000800033C0000031C000002FC00000D801E601DD
:10009000DF01EE01F401FA01000206029B02A9024F
:1000A000A202B102B702BD02C302C90211241FBEDF
:1000B000CFEFD0E4DEBFCDBF11E0A0E0B1E0E6EAD3
:1000C000F5E100E00BBF02C007900D92A236B10728
:1000D000D9F721E0A2E6B1E001C01D92AA3DB20726
:1000E000E1F780D60C94D10A8BCF181619065CF074
:1000F0000895000021503109E1F74F5F5F4F8417E9
:10010000950719F4089540E050E027E033E0F1CF7F
:100110005E9888B95F9A00005F9882E090E0E5CF32
:10012000089581E0F5CF0895813118F48158F0CF1A
:1001300008958155EDCF089584E690E0D6DF88E3F9
:10014000E7DF86E0E5DF8FE0E3DF81E0E1DF8AE003
:1001500090E0CBCF08955E9A88B95F9A00005F98CF
:1001600081E090E0C2CF08951F93CF93DF93FB010E
:100170009081992351F0EB0111E0180FD5DF89919F
:10018000EADF812F98819111F7CFDF91CF911F91F5
:1001900008950F931F93CF93DF93FC018B0150E0E1
:1001A000EA012197C60FD71F18824250510952F118
:1001B00021979F01ADECBCEC0E941F0A9695879594
:1001C00096958795969587959C01220F331F880FEA
:1001D000991F880F991F880F991F820F931F9F01E6
:1001E000281B390BC901805D88839F010E941F0A6B
:1001F000FC01F695E795F695E795F695E79541505C
:100200005109B2F6C801DF91CF911F910F91089566
:10021000EAE7F0E08081806E80830895AB01BC0145
:10022000141615061606170664F480E090E0DC014B
:1002300000000196A11DB11D481759076A077B07E9
:10024000B9F70895EF92FF920F931F93CF93DF9327
:100250000CE710E080E4F80180836CE271E080E05C
:1002600090E0DCDFC8E7D0E0E880F98081E4F801C5
:1002700080836CE271E080E090E0D0DF888199813A
:10028000E2E7F1E0F182E08293838283DF91CF9114
:100290001F910F91FF90EF900895CF93DF93EC01A2
:1002A0008130910599F01CF4892B41F076C08230A1
:1002B0009105B1F0079709F46AC06FC081E080939F
:1002C000D2018091690181117AC072C091E080E011
:1002D00020916901211101C090E0C92FD82F5FC082
:1002E00080917401909175018F3522E0920750F44E
:1002F0008091D2018131B8F180518093D201C3E065
:10030000D0E031C08239924050F08091D2018131E9
:1003100050F5805F8093D201C4E0D0E024C080918A
:100320007201909173018F3522E0920760F4809101
:10033000D2018230C0F08131B1F081508093D2017E
:10034000C5E0D0E010C08239924068F08091D201BF
:10035000803120F09FEE980F9F3028F48F5F8093BC
:10036000D201C6E0D0E09091D20180917601891748
:1003700009F44CC0E6E7F1E020E831E0828189171A
:1003800009F444C032962E173F07C1F708C0809188
:100390006901882309F43AC019C0C2E0D0E0C8302E
:1003A000D10508F03AC0FE01EA5BFF4F0C94160A33
:1003B00060E070E0CB01B4D5C0E0D0E02EC060E0DA
:1003C00070E0CB01ADD5C2E0D0E027C060E070E0C6
:1003D00088EC93E4A5D5C1E0D0E01FC064EA70EFDB
:1003E00086E793E49DD519C064EA70ED84EA93E44E
:1003F00097D513C06BE774ED82E993E491D50DC0F6
:1004000060E070E08CE593E48BD507C060E070E0BD
:1004100088EC92E485D5C7E0D0E0CE01DF91CF91A2
:100420000895CF93DF93EC018130910599F01CF48E
:10043000892B41F076C082309105B1F0079709F41D
:100440006AC06FC081E08093D20180916801811100
:1004500079C071C091E080E020916801211101C054
:1004600090E0C92FD82F5FC08091740190917501E1
:100470008F3522E0920750F48091D2018131B8F19A
:1004800080518093D201C3E0D0E031C082399240E4
:1004900050F08091D201813150F5805F8093D2017C
:1004A000C4E0D0E024C080917201909173018F3537
:1004B00022E0920760F48091D2018230C0F0813155
:1004C000B1F081508093D201C5E0D0E010C08239F4
:1004D000924068F08091D201803120F09FEE980F19
:1004E0009F3028F48F5F8093D201C6E0D0E09091D6
:1004F000D20180917601891709F44BC0E6E7F1E05B
:1005000020E831E08281891709F443C032962E1722
:100510003F07C1F708C080916801882309F439C0FA
:1005200018C0C2E0D0E0C830D10508F039C0FE01E3
:10053000E25BFF4F7BC760E070E0CB01F1D4C0E02D
:10054000D0E02EC060E070E0CB01EAD4C2E0D0E0A1
:1005500027C060E070E088EC93E4E2D4C1E0D0E032
:100560001FC064EA70EF86E793E4DAD419C064EA46
:1005700070ED84EA93E4D4D413C06BE774ED82E9A0
:1005800093E4CED40DC060E070E08CE593E4C8D471
:1005900007C060E070E088EC92E4C2D4C7E0D0E02D
:1005A000CE01DF91CF91089582309105E9F034F4C6
:1005B000009759F08130910569F026C0833091058C
:1005C000A1F184309105C9F01FC02091690121116A
:1005D0002CC09BC031E020E080916901811101C0F5
:1005E00030E0832F922F91C080916601811133C03A
:1005F0008091620181112FC018C080916901811121
:1006000087C080E090E081C08230910571F01CF4D9
:10061000992344F07AC083309105E9F08430910544
:1006200009F473C080E090E070C09091D201809195
:100630007601891709F45EC0E6E7F1E020E831E0D1
:100640008281891709F459C032962E173F07C1F7E6
:1006500082E090E05AC08091CB0181110EC060E031
:1006600070E08AEF93E45CD481E080936201809132
:10067000D2018F5F8093CB0129C0803131F080326D
:1006800021F08F5F8093CB0104C01092CB011092B8
:1006900062013091CB01E6E7F1E080E090E0AC014F
:1006A000208132130EC021812A3F59F4440F551F77
:1006B000FA01EA58FE4F10821092CB0110926201AB
:1006C00005C0019632968630910549F79091D20186
:1006D000809176018917A1F0E6E7F1E020E831E0AA
:1006E0008281891781F032962E173F07C9F783E080
:1006F00090E00BC084E090E008C084E090E005C08A
:1007000084E090E002C084E090E08093D3010895FB
:1007100081E090E0FACF82309105E9F034F400975F
:1007200059F08130910569F026C083309105A1F11F
:1007300084309105C9F01FC02091680121112CC09F
:100740009BC031E020E080916801811101C030E060
:10075000832F922F91C080916601811133C08091C7
:10076000620181112FC018C080916801811187C07A
:1007700080E090E081C08230910571F01CF49923F3
:1007800044F07AC083309105E9F08430910509F492
:1007900073C080E090E070C09091D20180917601AA
:1007A000891709F45EC0E6E7F1E020E831E08281D4
:1007B000891709F459C032962E173F07C1F782E016
:1007C00090E05AC08091CB0181110EC060E070E0D2
:1007D0008AEF93E4A5D381E0809362018091D201F6
:1007E0008F5F8093CB0129C0803131F0803221F0BE
:1007F0008F5F8093CB0104C01092CB0110926201F5
:100800003091CB01E6E7F1E080E090E0AC0120819F
:1008100032130EC021812A3F59F4440F551FFA01AB
:10082000EA58FE4F10821092CB011092620105C06F
:10083000019632968630910549F79091D2018091C8
:1008400076018917A1F0E6E7F1E020E831E0828146
:10085000891781F032962E173F07C9F783E090E0A1
:100860000BC084E090E008C084E090E005C084E024
:1008700090E002C084E090E08093CE01089581E092
:1008800090E0FACF4EDC69E071E081E06DDC6AE176
:1008900071E081E169CC089544DC6BE271E081E0B4
:1008A00063DC6CE371E081E15FCC08950F931F93EB
:1008B000CF93DF9336DC60E671E080E255DC809117
:1008C000D20132DC8EE347DC8091D5012DDC8CE354
:1008D00042DCCBECD1E0888127DC89813CDCC6E7B7
:1008E000D1E002E811E088811FDC898134DC2296A6
:1008F000C017D107C1F7DF91CF911F910F910895D4
:10090000CF93DF9300D000D000D0CDB7DEB709DCA5
:100910006DE471E081E028DC6AE571E081E124DCCE
:1009200046E0BE016F5F7F4F8091D7019091D80163
:1009300030DCBC0188E118DC26960FB6F894DEBFE7
:100940000FBECDBFDF91CF9108958230910509F49C
:1009500044C02CF4009759F0019731F162C0833004
:10096000910509F443C0049709F452C05AC010928B
:10097000D8011092D70180916901811105C0809141
:1009800068018111A7C0B2C0809165018F3008F065
:100990005AC0109265017BC0809165018F3009F0CB
:1009A00052C01092650161C080916901811105C03A
:1009B00080916801811194C0A4C0809165018F303D
:1009C00008F053C01092650162C0809165018F30BC
:1009D00009F04BC01092650136C0209169012111C8
:1009E00076C020916801211172C02DC03091D201D2
:1009F000E6E7F1E042E851E074E060E02081231393
:100A000002C0872F962F32964E175F07B9F70BC09B
:100A100080916901811156C080916801811155C092
:100A20004DC080E090E081309105F9F024F400970A
:100A300009F04DC008C08330910549F1843091051B
:100A400009F43CC044C08091CF019091D00101963F
:100A50009093D0018093CF01809165018F5F809347
:100A6000650110DF80E090E032C08091CF0190916D
:100A7000D00101969093D0018093CF0180916501C0
:100A80008F5F8093650108DF81E090E020C0809156
:100A9000D7019091D80101969093D8018093D70106
:100AA0008091CF019091D00101969093D0018093D5
:100AB000CF01C8DBFBDE83E090E009C021DF84E0EA
:100AC00090E005C082E090E002C082E090E0809378
:100AD000D4010895809165018F3008F45ACF0CC07D
:100AE000809165018F3008F46DCF11C08091650150
:100AF0008F3008F4A8CF50CF809168018111A3CF27
:100B00004BCF809165018F3008F4AFCF5ECF8091DD
:100B100068018111AACF59CFE6E7F1E080E02AEF22
:100B20009EE080FD02C0918301C0218310828F5F0F
:100B300032968630B1F7EBECF1E010828DE28183E2
:100B40000895AF92BF92CF92DF92EF92FF920F93F0
:100B50001F93CF93DF937C0182E0E816F10471F1DB
:100B60003CF4E114F10479F0EA94EF28E9F0BEC016
:100B700083E0E816F10409F44AC0A4E0EA16F1049F
:100B800009F43FC0B3C01092D1018AE08093D9012B
:100B900080916901882309F4D9C0BEDF8091CF011B
:100BA0009091D001A5D433C091E080E020916901FB
:100BB000211101C090E0E92EF82EA9C09091D10139
:100BC0008091D901981748F0981307C01092D1016D
:100BD0000F2EF3E0EF2EF12CF02D9091D2018091A9
:100BE0007601891709F485C0E6E7F1E020E831E0F5
:100BF0008281891709F482C032962E173F07C1F708
:100C000086C080916901882309F4A0C07CC08091CE
:100C1000D1018F5F8093D1016894EE24E1F8F12C2B
:100C200095C0911108C0808131EE380F323080F0CC
:100C30008051823078F0211110C0808121EF280F7F
:100C4000233050F08052242F823038F0252F05C0F9
:100C5000942F03C0942F01C0242F3296CE16DF06A6
:100C600001F7209364019093630106E711E00F2ED2
:100C7000F1E1AF2EF02D0F2EF1E2BF2EF02D10C0BE
:100C8000F8018081811107C080916301811158C0F2
:100C9000B08201C0A0820E5F1F4FC016D10619F0AE
:100CA00024D480FDEDCF1092640110926301609115
:100CB000040170E08091D7019091D801A3D3892BD2
:100CC00039F48091D901823018F081508093D90194
:100CD00088819EEF980F903218F48150888301C06C
:100CE00018822296CC15DD0599F730C0E12CF12C45
:100CF0002DC06894EE24E2F8F12C28C06894EE240C
:100D0000E2F8F12C23C0EE24E394F12C1FC0B2E0F2
:100D1000EB16F10409F47BCF83E0E816F104B1F49B
:100D20009091630120916401C6E7D1E00F2EF2E8B3
:100D3000CF2EF1E0DF2EF02DFE0141E050E071CF2B
:100D400080916401882309F4A5CFA5CFE092CD015D
:100D5000C701DF91CF911F910F91FF90EF90DF902E
:100D6000CF90BF90AF900895EF92FF920F931F9393
:100D7000CF93DF93C2E8D1E00F2EFAECEF2EF1E033
:100D8000FF2EF02D8E014E815F81688579858A81E5
:100D90009B81AC81BD81481759076A077B0758F0D2
:100DA000EA85FB85888199810995998388831E82CC
:100DB0001F8218861986F80186819781A085B185E2
:100DC0004996A11DB11D86839783A087B1872C9674
:100DD000CE15DF05B9F6DF91CF911F910F91FF90EE
:100DE000EF90089511B88FEF82B984B990E495B966
:100DF00087B918B88AB91BB89FD90ADAFCD0109203
:100E0000D0011092CF011092D6011092D40110920D
:100E1000CD011092D30118B815B8E2E8F1E01182C3
:100E2000108282E390E0A0E0B0E082839383A48309
:100E3000B58386839783A087B1872DE431E033871C
:100E400022871586148686879787A08BB18B828B25
:100E5000938BA48BB58B21E132E0378B268B118EDF
:100E6000108E828F938FA48FB58F868F978FA0A3BC
:100E7000B1A321EA35E033A322A315A214A249E1CC
:100E800050E060E070E046A357A360A771A742A7B7
:100E900053A764A775A724ED32E037A726A711AAA8
:100EA00010AA42AB53AB64AB75AB46AB57AB60AF6C
:100EB00071AF2BE833E033AF22AF15AE14AE8093A1
:100EC000C0019093C101A093C201B093C30180936C
:100ED000C4019093C501A093C601B093C70185EAF0
:100EE00094E09093C9018093C80169E170E080E0CB
:100EF00090E0B0D08BD080B18095807280936901F2
:100F000080B1809580718093680180B180958870F0
:100F10008093670180B18095847080936601EBCFE8
:100F2000CF92DF92EF92FF926B017C019B01AC01AB
:100F300060916A0170916B0180916C0190916D01DB
:100F4000E8D0882309F452C020E030E0A901C701AD
:100F5000B601DFD0811106C0E1E9F0E08081887040
:100F6000808305C0E1E9F0E080818360808328E52B
:100F700039E344E75FE3C701B601CBD088233CF4F3
:100F80008FEF9FEF909399008093980023C020E00B
:100F900034E244EF56E4C701B601CDD118162CF463
:100FA000109299001092980015C020E030E040E0C7
:100FB00053E4C701B601C3D19B01AC0160E074E208
:100FC00084EF9AE4AAD011D161507109709399000D
:100FD000609398001092950010929400C0926A015C
:100FE000D0926B01E0926C01F0926D01FF90EF9056
:100FF000DF90CF90089580E4809390008BE0809301
:10100000910060E070E0CB018BCF08958BE080937E
:1010100081008DE790E0909389008093880082E0C2
:1010200080936F00109285001092840080910501DA
:1010300090910601A0910701B091080180936E0183
:1010400090936F01A0937001B09371018FB7806886
:101050008FBF089560930501709306018093070187
:101060009093080160936E0170936F0180937001FB
:101070009093710108951F920F920FB60F92112451
:101080000BB60F922F933F934F935F936F937F9382
:101090008F939F93AF93BF93EF93FF9380916E01D4
:1010A00090916F01A0917001B09171010197A10918
:1010B000B10980936E0190936F01A0937001B0937A
:1010C0007101892B8A2B8B2B89F44EDE80910501CF
:1010D00090910601A0910701B091080180936E01E3
:1010E00090936F01A0937001B0937101FF91EF9104
:1010F000BF91AF919F918F917F916F915F914F9130
:101100003F912F910F900BBE0F900FBE0F901F902D
:1011100018959CD008F481E008950CD0D2C0CAD0B4
:1011200040F0C1D030F021F45F3F19F0B3C051114D
:10113000FCC0B6C0D7D098F39923C9F35523B1F3B7
:10114000951B550BBB27AA2762177307840738F036
:101150009F5F5F4F220F331F441FAA1FA9F333D095
:101160000E2E3AF0E0E830D091505040E695001C49
:10117000CAF729D0FE2F27D0660F771F881FBB1F05
:10118000261737074807AB07B0E809F0BB0B802DDF
:10119000BF01FF2793585F4F2AF09E3F510568F02B
:1011A00079C0C3C05F3FECF3983EDCF3869577953A
:1011B0006795B795F7959F5FC9F7880F911D96952D
:1011C000879597F90895E1E0660F771F881FBB1F89
:1011D000621773078407BA0720F0621B730B840B36
:1011E000BA0BEE1F88F7E095089504D06894B1110A
:1011F0009CC008957FD088F09F5790F0B92F992711
:10120000B751A0F0D1F0660F771F881F991F1AF011
:10121000BA95C9F712C0B13081F086D0B1E0089517
:1012200083C0672F782F8827B85F39F0B93FCCF398
:10123000869577956795B395D9F73EF49095809507
:10124000709561957F4F8F4F9F4F0895990F0008BC
:10125000550FAA0BE0E8FEEF16161706E807F90788
:10126000C0F012161306E407F50798F0621B730B23
:10127000840B950B39F40A2661F0232B242B252BA4
:1012800021F408950A2609F4A140A6958FEF811D47
:10129000811D089597F99F6780E870E060E00895E8
:1012A0009FEF80EC089500240A941616170618067E
:1012B0000906089500240A9412161306140605065A
:1012C0000895092E0394000C11F4882352F0BB0FEB
:1012D00040F4BF2B11F460FF04C06F5F7F4F8F4F4E
:1012E0009F4F089557FD9058440F551F59F05F3F89
:1012F00071F04795880F97FB991F61F09F3F79F038
:1013000087950895121613061406551FF2CF4695B9
:10131000F1DF08C0161617061806991FF1CF86953B
:101320007105610508940895E894BB27662777271F
:10133000CB0197F908958ADF08F48FEF08950BD059
:10134000C0CFB1DF28F0B6DF18F0952309F0A2CFA7
:10135000A7CF1124EACFC6DFA0F3959FD1F3950F55
:1013600050E0551F629FF001729FBB27F00DB11D29
:10137000639FAA27F00DB11DAA1F649F6627B00DB9
:10138000A11D661F829F2227B00DA11D621F739FA2
:10139000B00DA11D621F839FA00D611D221F749FB0
:1013A0003327A00D611D231F849F600D211D822FF7
:1013B000762F6A2F11249F5750408AF0E1F088233E
:1013C0004AF0EE0FFF1FBB1F661F771F881F91504B
:1013D0005040A9F79E3F510570F05CCFA6CF5F3F0C
:1013E000ECF3983EDCF3869577956795B795F7957E
:1013F000E7959F5FC1F7FE2B880F911D9695879506
:1014000097F90895AA1BBB1B51E107C0AA1FBB1F78
:10141000A617B70710F0A61BB70B881F991F5A9580
:10142000A9F780959095BC01CD010895EE0FFF1F9F
:101430000024001C0BBE0790F691E02D0994A29F9A
:10144000B001B39FC001A39F700D811D1124911D98
:10145000B29F700D811D1124911D08958F929F924E
:10146000AF92BF92CF92DF92EF92FF92CF93DF9332
:10147000EC01688179818A819B8161157105810503
:10148000910521F464E279ED8BE597E02DE133EFEE
:1014900041E050E038D049015A019B01AC01A7EA74
:1014A000B1E44DD06B017C01ACEEB4EFA501940129
:1014B00052D0DC01CB018C0D9D1DAE1DBF1DB7FFB1
:1014C00003C00197A109B04888839983AA83BB838D
:1014D0009F77DF91CF91FF90EF90DF90CF90BF90FB
:1014E000AF909F908F900895B9CF80E091E0B6CFF4
:1014F000A0E0B0E08093000190930101A09302016D
:10150000B09303010895052E97FB16F400940FD0B5
:1015100057FD05D024D007FC02D046F408C05095F2
:101520004095309521953F4F4F4F5F4F08959095CF
:101530008095709561957F4F8F4F9F4F08957FDF06
:10154000A59F900DB49F900DA49F800D911D112417
:101550000895B7FFF4CFF3DF821B930B0895A1E248
:101560001A2EAA1BBB1BFD010DC0AA1FBB1FEE1F1D
:10157000FF1FA217B307E407F50720F0A21BB30B68
:10158000E40BF50B661F771F881F991F1A9469F7E4
:1015900060957095809590959B01AC01BD01CF0140
:0615A0000895F894FFCF4E
:1015A6000100000014010000003D3D3D3D3D3D2091
:1015B6004C4344203D3D3D3D3D003D3D3D3D3D20B0
:1015C6005241434552203D3D3D3D005220666F72DB
:1015D600204F6E6520506C61796572005920666FE8
:1015E600722054776F20506C617965720047414DC7
:1015F60045204F564552203A280053434F52453A0C
:021606002000C2
:00000001FF
