S01E0000616C766F763030315F66696E616C5F70726F6A6563742E737265638E
S11300004DC0000069C0000067C0000065C000006A
S113001063C0000061C000005FC000005DC000005C
S11300205BC0000059C0000057C0000055C000006C
S113003053C0000007C600004FC000004DC00000C0
S11300404BC0000049C0000047C0000045C000008C
S113005043C0000041C000003FC000003DC000009C
S11300603BC0000039C0000037C0000035C00000AC
S113007033C0000031C000002FC000002DC00000BC
S11300802BC0000029C0000027C00000CF01DD0103
S1130090D601E501EB01F101F701FD0111241FBEB9
S11300A0CFEFD0E4DEBFCDBF11E0A0E0B1E0E4E7E4
S11300B0F1E100E00BBF02C007900D92A236B10738
S11300C0D9F721E0A2E6B1E001C01D92AB3BB20733
S11300D0E1F795D40C94B80893CF181619065CF080
S11300E00895000021503109E1F74F5F5F4F8417F5
S11300F0950719F4089540E050E027E033E0F1CF8C
S11301005E9888B95F9A00005F9882E090E0E5CF3E
S1130110089581E0F5CF0895813118F48158F0CF26
S113012008958155EDCF089584E690E0D6DF88E305
S1130130E7DF86E0E5DF8FE0E3DF81E0E1DF8AE00F
S113014090E0CBCF08955E9A88B95F9A00005F98DB
S113015081E090E0C2CF08951F93CF93DF93FB011A
S11301609081992351F0EB0111E0180FD5DF8991AB
S1130170EADF812F98819111F7CFDF91CF911F9101
S113018008950F931F93CF93DF93FC018B0150E0ED
S1130190EA012197C60FD71F18824250510942F134
S11301A021979F01ADECBCEC31D796958795969538
S11301B08795969587959C01220F331F880F991F69
S11301C0880F991F880F991F820F931F9F01281B67
S11301D0390BC901805D88839F0118D7FC01F6950E
S11301E0E795F695E795F695E79541505109C2F6DE
S11301F0C801DF91CF911F910F910895EAE7F0E0D4
S11302008081806E80830895AB01BC0114161506AD
S11302101606170664F480E090E0DC010000019605
S1130220A11DB11D481759076A077B07B9F708953F
S1130230EF92FF920F931F93CF93DF930CE710E09D
S113024080E4F80180836CE271E080E090E0DCDF20
S1130250C8E7D0E0E880F98081E4F80180836CE2AB
S113026071E080E090E0D0DF88819981E2E7F1E0FD
S1130270F182E08293838283DF91CF911F910F916A
S1130280FF90EF900895CF93DF93EC0181309105B7
S113029099F01CF4892B41F078C082309105B1F0BB
S11302A0079709F46CC071C081E08093B401809118
S11302B0690181117BC073C091E080E020916901E4
S11302C0211101C090E0C92FD82F61C08091740121
S11302D0909175018F3522E0920750F48091B4011A
S11302E08131B8F180518093B401C3E0D0E031C0D2
S11302F08239924050F08091B401813150F5805F91
S11303008093B401C4E0D0E024C080917201909144
S113031073018F3522E0920760F48091B40182303A
S1130320C0F08131B1F081508093B401C5E0D0E0D8
S113033010C08239924068F08091B401803120F07D
S11303409FEE980F9F3028F48F5F8093B401C6E02E
S1130350D0E08091B40190917601981709F44DC0D2
S113036090917801891709F448C090917A0189170E
S113037009F443C090917C01981309C03EC0809158
S11303806901882309F439C018C0C2E0D0E0C8303C
S1130390D10508F039C0FE01EA5BFF4F2EC660E0CC
S11303A070E0CB01A4D3C0E0D0E02EC060E070E0E8
S11303B0CB019DD3C2E0D0E027C060E070E088ECC0
S11303C093E495D3C1E0D0E01FC064EA70EF86E700
S11303D093E48DD319C064EA70ED84EA93E487D37F
S11303E013C06BE774ED82E993E481D30DC060E040
S11303F070E08CE593E47BD307C060E070E088ECA8
S113040092E475D3C7E0D0E0CE01DF91CF91089597
S113041082309105F1F034F4009761F08130910558
S113042071F027C08330910509F46FC084309105C1
S1130430C9F01FC02091690121116AC063C031E075
S113044020E080916901811101C030E0832F922F57
S113045010C020916601211110C020916201211168
S11304600CC050C080916901811155C087E090E0B3
S113047049C08330910509F045C08091AE018111D6
S113048010C060E070E08AEF93E431D381E08093A0
S113049062018091B4018F5F8093AE0183E090E0AC
S11304A031C0803151F0803241F090916201992342
S11304B021F08F5F8093AE0104C01092AE011092C0
S11304C062013091AE01E6E7F1E080E090E0AC013A
S11304D02081321310C021812A3F69F4440F551F33
S11304E0FA01EA58FE4F10821092AE011092620196
S11304F083E090E007C0019632968430910539F785
S113050083E090E08093B501089582E090E0FACF13
S113051082E090E0F7CF81E090E0F4CFFADD69E08B
S113052071E081E019DE6AE171E081E115CE0895A0
S1130530F0DD6BE271E081E00FDE6CE371E081E1FC
S11305400BCE08950F931F93CF93DF93E2DD60E604
S113055071E080E201DE8091B401DEDD8EE3F3DD43
S1130560CEEAD1E08881D8DD8981EDDDC6E7D1E02E
S11305700EE711E08881D0DD8981E5DD2296C01780
S1130580D107C1F7DF91CF911F910F910895CF93B8
S1130590DF9300D000D000D0CDB7DEB7BADD6DE474
S11305A071E081E0D9DD6AE571E081E1D5DD46E005
S11305B0BE016F5F7F4F8091B8019091B901E1DD79
S11305C0BC0188E1C9DD26960FB6F894DEBF0FBEE4
S11305D0CDBFDF91CF9108958230910509F43FC0DA
S11305E02CF4009751F0019719F155C0833091050F
S11305F0D9F1049709F44AC04EC01092B90110927F
S1130600B80180916901882341F0809165018F30A0
S113061008F053C01092650174C0809165018F3059
S113062008F44BC08F3009F048C01092650157C0E0
S113063080916901882341F0809165018F3008F031
S11306404EC0109265015DC0809165018F3008F441
S113065046C08F3009F043C0109265012EC020912E
S1130660690121116BC029C03091B401E6E7F1E0C2
S11306704EE751E074E060E02081231302C0872F2D
S1130680962F32964E175F07B9F707C0809169011C
S1130690811152C04DC080E090E081309105F9F0A5
S11306A024F4009709F04AC008C08330910549F149
S11306B08430910509F43CC041C08091B10190910E
S11306C0B20101969093B2018093B10180916501CA
S11306D08F5F8093650122DF80E090E02FC08091DE
S11306E0B1019091B20101969093B2018093B1014E
S11306F0809165018F5F809365011ADF81E090E04E
S11307001DC08091B8019091B90101969093B901EF
S11307108093B8018091B1019091B20101969093B8
S1130720B2018093B10184DD0DDF83E090E006C067
S11307302EDF84E090E002C082E090E08093B60176
S11307400895E6E7F1E080E02AEF9EE080FD02C034
S1130750918301C0218310828F5F32968430B1F778
S1130760EEEAF1E010828DE281830895CF92DF9268
S1130770EF92FF920F931F93CF93DF93EC0182309C
S1130780910549F12CF4009759F00197D1F0CCC0B0
S11307908330910509F447C0049709F43EC0C4C0EE
S11307A01092B3018AE08093BA0180916901882391
S11307B009F4DBC0C6DF8091B1019091B2017FD40E
S11307C03BC091E080E020916901211101C090E0DB
S11307D0C92FD82F2AC09091B3018091BA019817DC
S11307E030F0981304C01092B301C3E0D0E08091BC
S11307F0B40190917601981709F499C09091780109
S1130800981709F497C090917A01981709F495C044
S113081090917C01981309C093C080916901882349
S113082009F4A3C090C0C2E0D0E0C230D10521F0E9
S1130830C330D10549F099C08091B3018F5F809393
S1130840B301C2E0D0E091C06091040170E08091F6
S1130850B8019091B901BDD3892B09F077C080917B
S1130860BA01823008F472C081508093BA016EC01C
S113087080819EEF980F903218F48150808301C0DC
S113088010823296EE16FF0699F7809163019091DB
S11308906401E6E7F1E031E040E081110DC08081C0
S11308A021EE280F233038F020EF280F832F223039
S11308B018F0842F01C0832F91110DC0908121EF76
S11308C0290F233038F020EE290F932F223018F00F
S11308D0942F01C0932F3296EE16FF06F1F69093F3
S11308E06401809363010F2EF1E1CF2EF02D0F2EC2
S11308F0F1E2DF2EF02D10C0F8018081811107C0D4
S11309008091630181112CC0D08201C0C0820E5F2E
S11309101F4F0E151F0519F0CFD380FDEDCF109298
S113092064011092630121C0C0E0D0E01EC0C4E0A5
S1130930D0E01BC0C4E0D0E018C0C4E0D0E015C0D3
S1130940C4E0D0E012C0C1E0D0E00FC006E711E07F
S11309500F2EFEE7EF2EF1E0FF2EF02DF80188CFE9
S113096080916401882391F2D2CFC093B001CE016B
S1130970DF91CF911F910F91FF90EF90DF90CF9077
S11309800895EF92FF920F931F93CF93DF93CEE7D7
S1130990D1E00F2EFEEAEF2EF1E0FF2EF02D8E01B6
S11309A04E815F81688579858A819B81AC81BD8117
S11309B0481759076A077B0758F0EA85FB85888141
S11309C099810995998388831E821F8218861986C6
S11309D0F80186819781A085B1854996A11DB11D35
S11309E086839783A087B1872C96CE15DF05B9F649
S11309F0DF91CF911F910F91FF90EF90089511B85F
S1130A008FEF82B984B990E495B987B918B88AB9D7
S1130A101BB88ADBF3DBD6D01092B2011092B1017D
S1130A201092B7011092B6011092B0011092B50164
S1130A3018B815B8EEE7F1E01182108282E390E075
S1130A40A0E0B0E082839383A483B58386839783F5
S1130A50A087B18723E431E0338722871586148683
S1130A6086879787A08BB18B828B938BA48BB58B56
S1130A7026EB33E0378B268B118E108E49E150E044
S1130A8060E070E0428F538F648F758F468F578F6D
S1130A9060A371A328E032E033A322A315A214A219
S1130AA086A397A3A0A7B1A782A793A7A4A7B5A736
S1130AB08CEE92E097A786A769E170E080E090E071
S1130AC0B0D08BD080B1809580728093690180B161
S1130AD0809580718093680180B18095887080933F
S1130AE0670180B18095847080936601EBCFCF92CB
S1130AF0DF92EF92FF926B017C019B01AC0160914C
S1130B006A0170916B0180916C0190916D01E8D044
S1130B10882309F452C020E030E0A901C701B601DE
S1130B20DFD0811106C0E1E9F0E080818870808324
S1130B3005C0E1E9F0E080818360808328E539E342
S1130B4044E75FE3C701B601CBD088233CF48FEFC1
S1130B509FEF909399008093980023C020E034E2A3
S1130B6044EF56E4C701B601CDD118162CF4109207
S1130B7099001092980015C020E030E040E053E462
S1130B80C701B601C3D19B01AC0160E074E284EFFC
S1130B909AE4AAD011D161507109709399006093BD
S1130BA098001092950010929400C0926A01D0921D
S1130BB06B01E0926C01F0926D01FF90EF90DF9079
S1130BC0CF90089580E4809390008BE0809391000F
S1130BD060E070E0CB018BCF08958BE080938100BF
S1130BE08DE790E0909389008093880082E0809361
S1130BF06F001092850010928400809105019091FD
S1130C000601A0910701B091080180936E019093B1
S1130C106F01A0937001B09371018FB780688FBF8B
S1130C2008956093050170930601809307019093E2
S1130C30080160936E0170936F018093700190932B
S1130C40710108951F920F920FB60F9211240BB6E3
S1130C500F922F933F934F935F936F937F938F9351
S1130C609F93AF93BF93EF93FF9380916E01909105
S1130C706F01A0917001B09171010197A109B109AF
S1130C8080936E0190936F01A0937001B0937101F2
S1130C90892B8A2B8B2B89F474DE8091050190912A
S1130CA00601A0910701B091080180936E01909311
S1130CB06F01A0937001B0937101FF91EF91BF9107
S1130CC0AF919F918F917F916F915F914F913F91E0
S1130CD02F910F900BBE0F900FBE0F901F90189581
S1130CE09CD008F481E008950CD0D2C0CAD040F062
S1130CF0C1D030F021F45F3F19F0B3C05111FCC0F2
S1130D00B6C0D7D098F39923C9F35523B1F3951BF3
S1130D10550BBB27AA2762177307840738F09F5F18
S1130D205F4F220F331F441FAA1FA9F333D00E2E87
S1130D303AF0E0E830D091505040E695001CCAF7F4
S1130D4029D0FE2F27D0660F771F881FBB1F2617B9
S1130D5037074807AB07B0E809F0BB0B802DBF018C
S1130D60FF2793585F4F2AF09E3F510568F079C0E2
S1130D70C3C05F3FECF3983EDCF3869577956795A7
S1130D80B795F7959F5FC9F7880F911D969587953D
S1130D9097F90895E1E0660F771F881FBB1F62175C
S1130DA073078407BA0720F0621B730B840BBA0B1A
S1130DB0EE1F88F7E095089504D06894B1119CC0A3
S1130DC008957FD088F09F5790F0B92F9927B75195
S1130DD0A0F0D1F0660F771F881F991F1AF0BA95FB
S1130DE0C9F712C0B13081F086D0B1E0089583C054
S1130DF0672F782F8827B85F39F0B93FCCF38695F1
S1130E0077956795B395D9F73EF49095809570954D
S1130E1061957F4F8F4F9F4F0895990F0008550F8D
S1130E20AA0BE0E8FEEF16161706E807F907C0F06C
S1130E3012161306E407F50798F0621B730B840B74
S1130E40950B39F40A2661F0232B242B252B21F44E
S1130E5008950A2609F4A140A6958FEF811D811DEE
S1130E60089597F99F6780E870E060E008959FEF28
S1130E7080EC089500240A9416161706180609062D
S1130E80089500240A9412161306140605060895FC
S1130E90092E0394000C11F4882352F0BB0F40F484
S1130EA0BF2B11F460FF04C06F5F7F4F8F4F9F4FC4
S1130EB0089557FD9058440F551F59F05F3F71F046
S1130EC04795880F97FB991F61F09F3F79F08795AD
S1130ED00895121613061406551FF2CF4695F1DF36
S1130EE008C0161617061806991FF1CF86957105C6
S1130EF0610508940895E894BB2766277727CB01FA
S1130F0097F908958ADF08F48FEF08950BD0C0CFC6
S1130F10B1DF28F0B6DF18F0952309F0A2CFA7CFF0
S1130F201124EACFC6DFA0F3959FD1F3950F50E0CB
S1130F30551F629FF001729FBB27F00DB11D639F87
S1130F40AA27F00DB11DAA1F649F6627B00DA11D2D
S1130F50661F829F2227B00DA11D621F739FB00DD3
S1130F60A11D621F839FA00D611D221F749F332743
S1130F70A00D611D231F849F600D211D822F762FDC
S1130F806A2F11249F5750408AF0E1F088234AF0D9
S1130F90EE0FFF1FBB1F661F771F881F9150504025
S1130FA0A9F79E3F510570F05CCFA6CF5F3FECF3ED
S1130FB0983EDCF3869577956795B795F795E79511
S1130FC09F5FC1F7FE2B880F911D9695879597F922
S1130FD00895AA1BBB1B51E107C0AA1FBB1FA6177C
S1130FE0B70710F0A61BB70B881F991F5A95A9F7CE
S1130FF080959095BC01CD010895EE0FFF1F00244C
S1131000001C0BBE0790F691E02D0994A29FB0013D
S1131010B39FC001A39F700D811D1124911DB29F28
S1131020700D811D1124911D08958F929F92AF928E
S1131030BF92CF92DF92EF92FF92CF93DF93EC01B6
S1131040688179818A819B8161157105810591058A
S113105021F464E279ED8BE597E02DE133EF41E093
S113106050E038D049015A019B01AC01A7EAB1E430
S11310704DD06B017C01ACEEB4EFA501940152D0CC
S1131080DC01CB018C0D9D1DAE1DBF1DB7FF03C040
S11310900197A109B04888839983AA83BB839F776A
S11310A0DF91CF91FF90EF90DF90CF90BF90AF9002
S11310B09F908F900895B9CF80E091E0B6CFA0E0E3
S11310C0B0E08093000190930101A0930201B093DA
S11310D003010895052E97FB16F400940FD057FDD5
S11310E005D024D007FC02D046F408C050954095A2
S11310F0309521953F4F4F4F5F4F089590958095C0
S1131100709561957F4F8F4F9F4F08957FDFA59F07
S1131110900DB49F900DA49F800D911D11240895EE
S1131120B7FFF4CFF3DF821B930B0895A1E21A2ECD
S1131130AA1BBB1BFD010DC0AA1FBB1FEE1FFF1F77
S1131140A217B307E407F50720F0A21BB30BE40BC7
S1131150F50B661F771F881F991F1A9469F760950E
S11311607095809590959B01AC01BD01CF010895C8
S1071170F894FFCF1D
S11311740100000005010000003D3D3D3D3D3D20D2
S11311844C4344203D3D3D3D3D003D3D3D3D3D20E2
S11311945241434552203D3D3D3D005220666F720D
S11311A4204F6E6520506C61796572005920666F1A
S11311B4722054776F20506C617965720047414DF9
S11311C445204F564552203A280053434F52453A3E
S10511D42000F5
S9030000FC
