S01E0000616C766F763030315F66696E616C5F70726F6A6563742E737265638E
S113000045C0000060C000005EC000005CC000008D
S11300105AC0000058C0000056C0000054C0000080
S113002052C0000050C000004EC000004CC0000090
S11300304AC0000094C2000046C0000044C0000052
S113004042C0000040C000003EC000003CC00000B0
S11300503AC0000038C0000036C0000034C00000C0
S113006032C0000030C000002EC000002CC00000D0
S11300702AC0000028C0000026C0000024C00000E0
S113008022C0000020C000001EC0000011241FBEBA
S1130090CFEFD0E4DEBFCDBF11E0A0E0B1E0E0E5FA
S11300A0F9E000E00BBF02C007900D92AA32B1073D
S11300B0D9F721E0AAE2B1E001C01D92AB35B20745
S11300C0E1F766D143C49CCF181619065CF0089575
S11300D0000021503109E1F74F5F5F4F8417950706
S11300E019F4089540E050E027E033E0F1CF5E9842
S11300F088B95F9A00005F9882E090E0E5CF0895A8
S113010081E0F5CF0895813118F48158F0CF089536
S11301108155EDCF089584E690E0D6DF88E3E7DFEC
S113012086E0E5DF8FE0E3DF81E0E1DF8AE090E075
S1130130CBCF08955E9A88B95F9A00005F9881E0FA
S113014090E0C2CF08951F93CF93DF93FB0190817A
S1130150992351F0EB0111E0180FD5DF8991EADF03
S1130160812F98819111F7CFDF91CF911F9108953D
S1130170EAE7F0E08081806E80830895AB01BC01E2
S1130180141615061606170664F480E090E0DC01E8
S113019000000196A11DB11D481759076A077B0786
S11301A0B9F70895EF92FF920F931F93CF93DF93C4
S11301B00CE710E080E4F80180836CE271E080E0F9
S11301C090E0DCDFC8E7D0E0E880F98081E4F80162
S11301D080836CE271E080E090E0D0DF88819981D7
S11301E0E3E3F1E0F182E08293838283DF91CF91B4
S11301F01F910F91FF90EF900895009719F00197C8
S113020041F060C081E08093520180E18093370126
S113021059C080913501909136018F3522E09207C3
S113022080F480915201813108F44CC08051809354
S1130230520164EA70EF86E793E4E6D082E090E04E
S113024008958239924078F0809152018131D0F53D
S1130250805F8093520164EA70ED84EA93E4D4D021
S113026083E090E0089580913301909134018F35BB
S113027022E0920788F480915201823018F1813192
S113028009F18150809352016BE774ED82E993E4A4
S1130290BBD084E090E008958239924098F0809138
S11302A05201803120F09FEE980F9F3058F48F5FF9
S11302B08093520160E070E08CE593E4A5D085E082
S11302C090E0089560E070E0CB019ED081E090E082
S11302D00895029770F466DF13DF64E071E080E252
S11302E032DF809152010FDF8EE324DF81E090E062
S11302F002C080E090E0809353010895EF92FF9252
S11303000F931F93CF93DF9380912A01882319F0D1
S113031086E091E0EBD281E080932A01C8E3D1E04A
S11303200F2EF0E5EF2EF1E0FF2EF02D8E014E8121
S11303305F81688579858A819B81AC81BD814817FD
S113034059076A077B0758F0EA85FB8588819981FC
S11303500995998388831E821F8218861986F8015D
S113036086819781A085B1854996A11DB11D86839B
S11303709783A087B1872C96CE15DF05B9F6109226
S11303802A01DF91CF911F910F91FF90EF90089573
S113039011B88FEF82B984B990E495B987B918B8C8
S11303A08AB91BB8B8DEE4DE9AD0109254011092D8
S11303B0530118B815B8E8E3F1E01182108289E11D
S11303C090E0A0E0B0E082839383A483B583868326
S11303D09783A087B1872DEF30E033872287158676
S11303E0148686879787A08BB18B828B938BA48B83
S11303F0B58B89E691E0978B868B69E170E080E0AC
S113040090E09CD077D0FFCFCF92DF92EF92FF9213
S11304106B017C019B01AC0160912B0170912C015B
S113042080912D0190912E01E8D0882309F452C0C7
S113043020E030E0A901C701B601DFD0811106C078
S1130440E1E9F0E080818870808305C0E1E9F0E0B3
S113045080818360808328E539E344E75FE3C70153
S1130460B601CBD088233CF48FEF9FEF9093990093
S11304708093980023C020E034E244EF56E4C7019F
S1130480B601CDD118162CF4109299001092980050
S113049015C020E030E040E053E4C701B601C3D109
S11304A09B01AC0160E074E284EF9AE4AAD011D11C
S11304B061507109709399006093980010929500AF
S11304C010929400C0922B01D0922C01E0922D0145
S11304D0F0922E01FF90EF90DF90CF90089580E48A
S11304E0809390008BE08093910060E070E0CB01FA
S11304F08BCF08958BE0809381008DE790E09093FB
S113050089008093880082E080936F0010928500B8
S1130510109284008091000190910101A091020148
S1130520B091030180932F0190933001A093310186
S1130530B09332018FB780688FBF08956093000134
S113054070930101809302019093030160932F0142
S113055070933001809331019093320108951F927A
S11305600F920FB60F9211240BB60F922F933F9355
S11305704F935F936F937F938F939F93AF93BF93A7
S1130580EF93FF9380912F0190913001A09131015D
S1130590B09132010197A109B10980932F01909381
S11305A03001A0933101B0933201892B8A2B8B2B1C
S11305B089F4A4DE8091000190910101A0910201CF
S11305C0B091030180932F0190933001A0933101E6
S11305D0B0933201FF91EF91BF91AF919F918F91B1
S11305E07F916F915F914F913F912F910F900BBE2F
S11305F00F900FBE0F901F9018959CD008F481E0C7
S113060008950CD0D2C0CAD040F0C1D030F021F44B
S11306105F3F19F0B3C05111FCC0B6C0D7D098F3F6
S11306209923C9F35523B1F3951B550BBB27AA276F
S113063062177307840738F09F5F5F4F220F331FE1
S1130640441FAA1FA9F333D00E2E3AF0E0E830D0AD
S113065091505040E695001CCAF729D0FE2F27D0B0
S1130660660F771F881FBB1F261737074807AB077E
S1130670B0E809F0BB0B802DBF01FF2793585F4FF3
S11306802AF09E3F510568F079C0C3C05F3FECF388
S1130690983EDCF3869577956795B795F7959F5FB8
S11306A0C9F7880F911D9695879597F90895E1E00C
S11306B0660F771F881FBB1F621773078407BA076B
S11306C020F0621B730B840BBA0BEE1F88F7E095C6
S11306D0089504D06894B1119CC008957FD088F027
S11306E09F5790F0B92F9927B751A0F0D1F0660F1A
S11306F0771F881F991F1AF0BA95C9F712C0B13035
S113070081F086D0B1E0089583C0672F782F8827C1
S1130710B85F39F0B93FCCF3869577956795B39573
S1130720D9F73EF490958095709561957F4F8F4FE2
S11307309F4F0895990F0008550FAA0BE0E8FEEFAC
S113074016161706E807F907C0F012161306E40791
S1130750F50798F0621B730B840B950B39F40A268A
S113076061F0232B242B252B21F408950A2609F468
S1130770A140A6958FEF811D811D089597F99F676C
S113078080E870E060E008959FEF80EC0895002415
S11307900A941616170618060906089500240A94E2
S11307A012161306140605060895092E0394000C68
S11307B011F4882352F0BB0F40F4BF2B11F460FFF7
S11307C004C06F5F7F4F8F4F9F4F089557FD905820
S11307D0440F551F59F05F3F71F04795880F97FB01
S11307E0991F61F09F3F79F08795089512161306BB
S11307F01406551FF2CF4695F1DF08C016161706EA
S11308001806991FF1CF869571056105089408951E
S1130810E894BB2766277727CB0197F908958ADFE9
S113082008F48FEF08950BD0C0CFB1DF28F0B6DF06
S113083018F0952309F0A2CFA7CF1124EACFC6DF81
S1130840A0F3959FD1F3950F50E0551F629FF001DF
S1130850729FBB27F00DB11D639FAA27F00DB11D38
S1130860AA1F649F6627B00DA11D661F829F2227C1
S1130870B00DA11D621F739FB00DA11D621F839F48
S1130880A00D611D221F749F3327A00D611D231F1E
S1130890849F600D211D822F762F6A2F11249F576C
S11308A050408AF0E1F088234AF0EE0FFF1FBB1F8F
S11308B0661F771F881F91505040A9F79E3F51052E
S11308C070F05CCFA6CF5F3FECF3983EDCF38695E7
S11308D077956795B795F795E7959F5FC1F7FE2BD9
S11308E0880F911D9695879597F908950F931F93F7
S11308F0CF93DF93E0915701F0915801238121FFB9
S11309001BC08C01D0E0C0E0F80181918F0160919F
S1130910570170915801DB011896ED91FC911997DC
S1130920882331F00995892B79F3DFEFCFEFECCFF2
S11309308AE00995892B19F08FEF9FEF02C08D2F64
S11309409C2FDF91CF911F910F910895F894FFCFC1
S1130950010000002000506572696F6420746F6F9D
S11309602073686F727420746F20636F6D706C6590
S10D0970746520626F6F627300006B
S9030000FC
