:1000000045C0000060C000005EC000005CC0000091
:100010005AC0000058C0000056C0000054C0000084
:1000200052C0000050C000004EC000004CC0000094
:100030004AC000005BC1000046C0000044C0000090
:1000400042C0000040C000003EC000003CC00000B4
:100050003AC0000038C0000036C0000034C00000C4
:1000600032C0000030C000002EC000002CC00000D4
:100070002AC0000028C0000026C0000024C00000E4
:1000800022C0000020C000001EC0000011241FBEBE
:10009000CFEFD0E4DEBFCDBF11E0A0E0B1E0E8EFEC
:1000A000F4E000E00BBF02C007900D92A832B10748
:1000B000D9F721E0A8E2B1E001C01D92A737B2074D
:1000C000E1F762D117C29CCF181619065CF00895AB
:1000D000000021503109E1F74F5F5F4F841795070A
:1000E00019F4089540E050E027E033E0F1CF5E9846
:1000F00088B95F9A00005F9882E090E0E5CF0895AC
:1001000081E0F5CF0895813118F48158F0CF08953A
:100110008155EDCF089584E690E0D6DF88E3E7DFF0
:1001200086E0E5DF8FE0E3DF81E0E1DF8AE090E079
:10013000CBCF08955E9A88B95F9A00005F9881E0FE
:1001400090E0C2CF08950F931F93CF93DF93182FA2
:10015000EB01D6DF8881882351F001E0010F812F68
:10016000D2DF8991E7DF102F88818111F6CFDF91EF
:10017000CF911F910F91089510926C0180916E01A3
:10018000811106C0809129018F5F80932901089514
:10019000833059F018F4823031F00895843039F00A
:1001A000853039F0089515B8089515B8089515B833
:1001B000089515B80895029778F480917800909189
:1001C000790044E050E06EE271E018D1BC0181E0BA
:1001D000BADF81E090E002C080E090E080936D01A2
:1001E00008958BE0809381008DE790E090938900E3
:1001F0008093880082E080936F00109285001092B7
:1002000084008091000190910101A0910201B091C0
:10021000030180932A0190932B01A0932C01B093AA
:100220002D018FB780688FBF089560930001709390
:100230000101809302019093030160932A0170935E
:100240002B0180932C0190932D010895EAE7F0E0B3
:100250008081806E80830895EF92FF920F931F93A9
:10026000CF93DF9380912801882319F084E091E0F7
:1002700011D181E080932801CEE4D1E00F2EF6E683
:10028000EF2EF1E0FF2EF02D8E014E815F8168850B
:1002900079858A819B81AC81BD81481759076A079E
:1002A0007B0758F0EA85FB858881998109959983B8
:1002B00088831E821F8218861986F801868197819D
:1002C000A085B185C296A11DB11D86839783A087A5
:1002D000B1872C96CE15DF05B9F610922801DF9173
:1002E000CF911F910F91FF90EF9008951F920F9261
:1002F0000FB60F9211240BB60F922F933F934F938B
:100300005F936F937F938F939F93AF93BF93EF937D
:10031000FF9380912A0190912B01A0912C01B09123
:100320002D010197A109B10980932A0190932B0116
:10033000A0932C01B0932D01892B8A2B8B2B89F450
:100340008BDF8091000190910101A0910201B09199
:10035000030180932A0190932B01A0932C01B09369
:100360002D01FF91EF91BF91AF919F918F917F915F
:100370006F915F914F913F912F910F900BBE0F9016
:100380000FBE0F901F90189511B88FEF82B984B9E6
:1003900015B887B918B88AB91BB8BDDE57DF1092F7
:1003A0006E0110926D0118B815B8EEE4F1E01182FB
:1003B000108282E390E0A0E0B0E082839383A48384
:1003C000B58386839783A087B1872CEB30E0338792
:1003D00022871586148686879787A08BB18B828BA0
:1003E000938BA48BB58B8BED90E0978B868B62E320
:1003F00070E080E090E019DFF4DEFFCF0F931F93F1
:10040000CF93DF93FC018B0150E0EA012197C60FE7
:10041000D71F18824250510942F121979F01ADEC3C
:10042000BCEC29D096958795969587959695879556
:100430009C01220F331F880F991F880F991F880F67
:10044000991F820F931F9F01281B390BC901805DE3
:1004500088839F0110D0FC01F695E795F695E79506
:10046000F695E79541505109C2F6C801DF91CF9149
:100470001F910F910895A29FB001B39FC001A39F48
:10048000700D811D1124911DB29F700D811D1124CD
:10049000911D08950F931F93CF93DF93E091730104
:1004A000F0917401238121FF1BC08C01D0E0C0E0DA
:1004B000F80181918F016091730170917401DB01EA
:1004C0001896ED91FC911997882331F00995892BA5
:1004D00079F3DFEFCFEFECCF8AE00995892B19F0A4
:1004E0008FEF9FEF02C08D2F9C2FDF91CF911F9137
:0804F0000F910895F894FFCF6D
:1004F80001000000506572696F6420746F6F20738B
:10050800686F727420746F20636F6D706C657465AA
:0805180020626F6F62730000A6
:00000001FF
